{
  "contractName": "MyToken",
  "abi": [
    {
      "inputs": [],
      "stateMutability": "nonpayable",
      "type": "constructor"
    },
    {
      "anonymous": false,
      "inputs": [
        {
          "indexed": true,
          "internalType": "address",
          "name": "addr",
          "type": "address"
        }
      ],
      "name": "AddressFrozen",
      "type": "event"
    },
    {
      "anonymous": false,
      "inputs": [
        {
          "indexed": true,
          "internalType": "address",
          "name": "addr",
          "type": "address"
        }
      ],
      "name": "AddressUnfrozen",
      "type": "event"
    },
    {
      "anonymous": false,
      "inputs": [
        {
          "indexed": true,
          "internalType": "address",
          "name": "owner",
          "type": "address"
        },
        {
          "indexed": true,
          "internalType": "address",
          "name": "spender",
          "type": "address"
        },
        {
          "indexed": false,
          "internalType": "uint256",
          "name": "value",
          "type": "uint256"
        }
      ],
      "name": "Approval",
      "type": "event"
    },
    {
      "anonymous": false,
      "inputs": [
        {
          "indexed": true,
          "internalType": "address",
          "name": "oldAssetProtectionRole",
          "type": "address"
        },
        {
          "indexed": true,
          "internalType": "address",
          "name": "newAssetProtectionRole",
          "type": "address"
        }
      ],
      "name": "AssetProtectionRoleSet",
      "type": "event"
    },
    {
      "anonymous": false,
      "inputs": [
        {
          "indexed": true,
          "internalType": "address",
          "name": "addr",
          "type": "address"
        }
      ],
      "name": "FrozenAddressWiped",
      "type": "event"
    },
    {
      "anonymous": false,
      "inputs": [
        {
          "indexed": true,
          "internalType": "address",
          "name": "oldProposedOwner",
          "type": "address"
        }
      ],
      "name": "OwnershipTransferDisregarded",
      "type": "event"
    },
    {
      "anonymous": false,
      "inputs": [
        {
          "indexed": true,
          "internalType": "address",
          "name": "currentOwner",
          "type": "address"
        },
        {
          "indexed": true,
          "internalType": "address",
          "name": "proposedOwner",
          "type": "address"
        }
      ],
      "name": "OwnershipTransferProposed",
      "type": "event"
    },
    {
      "anonymous": false,
      "inputs": [
        {
          "indexed": true,
          "internalType": "address",
          "name": "oldOwner",
          "type": "address"
        },
        {
          "indexed": true,
          "internalType": "address",
          "name": "newOwner",
          "type": "address"
        }
      ],
      "name": "OwnershipTransferred",
      "type": "event"
    },
    {
      "anonymous": false,
      "inputs": [],
      "name": "Pause",
      "type": "event"
    },
    {
      "anonymous": false,
      "inputs": [
        {
          "indexed": true,
          "internalType": "address",
          "name": "oldSupplyController",
          "type": "address"
        },
        {
          "indexed": true,
          "internalType": "address",
          "name": "newSupplyController",
          "type": "address"
        }
      ],
      "name": "SupplyControllerSet",
      "type": "event"
    },
    {
      "anonymous": false,
      "inputs": [
        {
          "indexed": true,
          "internalType": "address",
          "name": "from",
          "type": "address"
        },
        {
          "indexed": false,
          "internalType": "uint256",
          "name": "value",
          "type": "uint256"
        }
      ],
      "name": "SupplyDecreased",
      "type": "event"
    },
    {
      "anonymous": false,
      "inputs": [
        {
          "indexed": true,
          "internalType": "address",
          "name": "to",
          "type": "address"
        },
        {
          "indexed": false,
          "internalType": "uint256",
          "name": "value",
          "type": "uint256"
        }
      ],
      "name": "SupplyIncreased",
      "type": "event"
    },
    {
      "anonymous": false,
      "inputs": [
        {
          "indexed": true,
          "internalType": "address",
          "name": "from",
          "type": "address"
        },
        {
          "indexed": true,
          "internalType": "address",
          "name": "to",
          "type": "address"
        },
        {
          "indexed": false,
          "internalType": "uint256",
          "name": "value",
          "type": "uint256"
        }
      ],
      "name": "Transfer",
      "type": "event"
    },
    {
      "anonymous": false,
      "inputs": [],
      "name": "Unpause",
      "type": "event"
    },
    {
      "inputs": [
        {
          "internalType": "address",
          "name": "owner",
          "type": "address"
        },
        {
          "internalType": "address",
          "name": "spender",
          "type": "address"
        }
      ],
      "name": "allowance",
      "outputs": [
        {
          "internalType": "uint256",
          "name": "",
          "type": "uint256"
        }
      ],
      "stateMutability": "view",
      "type": "function",
      "constant": true
    },
    {
      "inputs": [],
      "name": "assetProtectionRole",
      "outputs": [
        {
          "internalType": "address",
          "name": "",
          "type": "address"
        }
      ],
      "stateMutability": "view",
      "type": "function",
      "constant": true
    },
    {
      "inputs": [
        {
          "internalType": "address",
          "name": "account",
          "type": "address"
        }
      ],
      "name": "balanceOf",
      "outputs": [
        {
          "internalType": "uint256",
          "name": "",
          "type": "uint256"
        }
      ],
      "stateMutability": "view",
      "type": "function",
      "constant": true
    },
    {
      "inputs": [],
      "name": "decimals",
      "outputs": [
        {
          "internalType": "uint8",
          "name": "",
          "type": "uint8"
        }
      ],
      "stateMutability": "view",
      "type": "function",
      "constant": true
    },
    {
      "inputs": [],
      "name": "name",
      "outputs": [
        {
          "internalType": "string",
          "name": "",
          "type": "string"
        }
      ],
      "stateMutability": "view",
      "type": "function",
      "constant": true
    },
    {
      "inputs": [],
      "name": "owner",
      "outputs": [
        {
          "internalType": "address",
          "name": "",
          "type": "address"
        }
      ],
      "stateMutability": "view",
      "type": "function",
      "constant": true
    },
    {
      "inputs": [],
      "name": "paused",
      "outputs": [
        {
          "internalType": "bool",
          "name": "",
          "type": "bool"
        }
      ],
      "stateMutability": "view",
      "type": "function",
      "constant": true
    },
    {
      "inputs": [],
      "name": "proposedOwner",
      "outputs": [
        {
          "internalType": "address",
          "name": "",
          "type": "address"
        }
      ],
      "stateMutability": "view",
      "type": "function",
      "constant": true
    },
    {
      "inputs": [],
      "name": "supplyController",
      "outputs": [
        {
          "internalType": "address",
          "name": "",
          "type": "address"
        }
      ],
      "stateMutability": "view",
      "type": "function",
      "constant": true
    },
    {
      "inputs": [],
      "name": "symbol",
      "outputs": [
        {
          "internalType": "string",
          "name": "",
          "type": "string"
        }
      ],
      "stateMutability": "view",
      "type": "function",
      "constant": true
    },
    {
      "inputs": [],
      "name": "totalSupply",
      "outputs": [
        {
          "internalType": "uint256",
          "name": "",
          "type": "uint256"
        }
      ],
      "stateMutability": "view",
      "type": "function",
      "constant": true
    },
    {
      "inputs": [
        {
          "internalType": "address",
          "name": "_proposedOwner",
          "type": "address"
        }
      ],
      "name": "proposeOwner",
      "outputs": [],
      "stateMutability": "nonpayable",
      "type": "function"
    },
    {
      "inputs": [],
      "name": "disregardProposeOwner",
      "outputs": [],
      "stateMutability": "nonpayable",
      "type": "function"
    },
    {
      "inputs": [],
      "name": "claimOwnership",
      "outputs": [],
      "stateMutability": "nonpayable",
      "type": "function"
    },
    {
      "inputs": [],
      "name": "reclaimPAXG",
      "outputs": [],
      "stateMutability": "nonpayable",
      "type": "function"
    },
    {
      "inputs": [],
      "name": "pause",
      "outputs": [],
      "stateMutability": "nonpayable",
      "type": "function"
    },
    {
      "inputs": [],
      "name": "unpause",
      "outputs": [],
      "stateMutability": "nonpayable",
      "type": "function"
    },
    {
      "inputs": [
        {
          "internalType": "address",
          "name": "recipient",
          "type": "address"
        },
        {
          "internalType": "uint256",
          "name": "amount",
          "type": "uint256"
        }
      ],
      "name": "transfer",
      "outputs": [
        {
          "internalType": "bool",
          "name": "success",
          "type": "bool"
        }
      ],
      "stateMutability": "nonpayable",
      "type": "function"
    },
    {
      "inputs": [
        {
          "internalType": "address",
          "name": "spender",
          "type": "address"
        },
        {
          "internalType": "uint256",
          "name": "amount",
          "type": "uint256"
        }
      ],
      "name": "approve",
      "outputs": [
        {
          "internalType": "bool",
          "name": "success",
          "type": "bool"
        }
      ],
      "stateMutability": "nonpayable",
      "type": "function"
    },
    {
      "inputs": [
        {
          "internalType": "address",
          "name": "sender",
          "type": "address"
        },
        {
          "internalType": "address",
          "name": "recipient",
          "type": "address"
        },
        {
          "internalType": "uint256",
          "name": "amount",
          "type": "uint256"
        }
      ],
      "name": "transferFrom",
      "outputs": [
        {
          "internalType": "bool",
          "name": "success",
          "type": "bool"
        }
      ],
      "stateMutability": "nonpayable",
      "type": "function"
    },
    {
      "inputs": [
        {
          "internalType": "address",
          "name": "spender",
          "type": "address"
        },
        {
          "internalType": "uint256",
          "name": "addedValue",
          "type": "uint256"
        }
      ],
      "name": "increaseAllowance",
      "outputs": [
        {
          "internalType": "bool",
          "name": "success",
          "type": "bool"
        }
      ],
      "stateMutability": "nonpayable",
      "type": "function"
    },
    {
      "inputs": [
        {
          "internalType": "address",
          "name": "spender",
          "type": "address"
        },
        {
          "internalType": "uint256",
          "name": "subtractedValue",
          "type": "uint256"
        }
      ],
      "name": "decreaseAllowance",
      "outputs": [
        {
          "internalType": "bool",
          "name": "success",
          "type": "bool"
        }
      ],
      "stateMutability": "nonpayable",
      "type": "function"
    },
    {
      "inputs": [
        {
          "internalType": "address",
          "name": "_newAssetProtectionRole",
          "type": "address"
        }
      ],
      "name": "setAssetProtectionRole",
      "outputs": [],
      "stateMutability": "nonpayable",
      "type": "function"
    },
    {
      "inputs": [
        {
          "internalType": "address",
          "name": "_addr",
          "type": "address"
        }
      ],
      "name": "freeze",
      "outputs": [],
      "stateMutability": "nonpayable",
      "type": "function"
    },
    {
      "inputs": [
        {
          "internalType": "address",
          "name": "_addr",
          "type": "address"
        }
      ],
      "name": "unfreeze",
      "outputs": [],
      "stateMutability": "nonpayable",
      "type": "function"
    },
    {
      "inputs": [
        {
          "internalType": "address",
          "name": "_addr",
          "type": "address"
        }
      ],
      "name": "wipeFrozenAddress",
      "outputs": [],
      "stateMutability": "nonpayable",
      "type": "function"
    },
    {
      "inputs": [
        {
          "internalType": "address",
          "name": "_addr",
          "type": "address"
        }
      ],
      "name": "isFrozen",
      "outputs": [
        {
          "internalType": "bool",
          "name": "",
          "type": "bool"
        }
      ],
      "stateMutability": "view",
      "type": "function",
      "constant": true
    },
    {
      "inputs": [
        {
          "internalType": "address",
          "name": "_newSupplyController",
          "type": "address"
        }
      ],
      "name": "setSupplyController",
      "outputs": [],
      "stateMutability": "nonpayable",
      "type": "function"
    },
    {
      "inputs": [
        {
          "internalType": "uint256",
          "name": "_value",
          "type": "uint256"
        }
      ],
      "name": "increaseSupply",
      "outputs": [
        {
          "internalType": "bool",
          "name": "success",
          "type": "bool"
        }
      ],
      "stateMutability": "nonpayable",
      "type": "function"
    },
    {
      "inputs": [
        {
          "internalType": "uint256",
          "name": "_value",
          "type": "uint256"
        }
      ],
      "name": "decreaseSupply",
      "outputs": [
        {
          "internalType": "bool",
          "name": "success",
          "type": "bool"
        }
      ],
      "stateMutability": "nonpayable",
      "type": "function"
    }
  ],
  "bytecode": "0x60806040526000600660146101000a81548160ff0219169083151502179055503480156200002c57600080fd5b506040518060400160405280600581526020017f546f6b656e0000000000000000000000000000000000000000000000000000008152506040518060400160405280600381526020017f544b4e00000000000000000000000000000000000000000000000000000000008152508160039080519060200190620000b1929190620003a4565b508060049080519060200190620000ca929190620003a4565b505050620000ef620000e16200021960201b60201c565b60006200022160201b60201c565b620000ff6200021960201b60201c565b600560006101000a81548173ffffffffffffffffffffffffffffffffffffffff021916908373ffffffffffffffffffffffffffffffffffffffff1602179055506000600660006101000a81548173ffffffffffffffffffffffffffffffffffffffff021916908373ffffffffffffffffffffffffffffffffffffffff1602179055506000600760006101000a81548173ffffffffffffffffffffffffffffffffffffffff021916908373ffffffffffffffffffffffffffffffffffffffff160217905550620001d36200021960201b60201c565b600960006101000a81548173ffffffffffffffffffffffffffffffffffffffff021916908373ffffffffffffffffffffffffffffffffffffffff160217905550620005f2565b600033905090565b600073ffffffffffffffffffffffffffffffffffffffff168273ffffffffffffffffffffffffffffffffffffffff16141562000294576040517f08c379a00000000000000000000000000000000000000000000000000000000081526004016200028b90620004a7565b60405180910390fd5b620002a8600083836200039a60201b60201c565b8060026000828254620002bc9190620004f7565b92505081905550806000808473ffffffffffffffffffffffffffffffffffffffff1673ffffffffffffffffffffffffffffffffffffffff1681526020019081526020016000206000828254620003139190620004f7565b925050819055508173ffffffffffffffffffffffffffffffffffffffff16600073ffffffffffffffffffffffffffffffffffffffff167fddf252ad1be2c89b69c2b068fc378daa952ba7f163c4a11628f55a4df523b3ef836040516200037a9190620004c9565b60405180910390a362000396600083836200039f60201b60201c565b5050565b505050565b505050565b828054620003b2906200055e565b90600052602060002090601f016020900481019282620003d6576000855562000422565b82601f10620003f157805160ff191683800117855562000422565b8280016001018555821562000422579182015b828111156200042157825182559160200191906001019062000404565b5b50905062000431919062000435565b5090565b5b808211156200045057600081600090555060010162000436565b5090565b600062000463601f83620004e6565b91507f45524332303a206d696e7420746f20746865207a65726f2061646472657373006000830152602082019050919050565b620004a18162000554565b82525050565b60006020820190508181036000830152620004c28162000454565b9050919050565b6000602082019050620004e0600083018462000496565b92915050565b600082825260208201905092915050565b6000620005048262000554565b9150620005118362000554565b9250827fffffffffffffffffffffffffffffffffffffffffffffffffffffffffffffffff0382111562000549576200054862000594565b5b828201905092915050565b6000819050919050565b600060028204905060018216806200057757607f821691505b602082108114156200058e576200058d620005c3565b5b50919050565b7f4e487b7100000000000000000000000000000000000000000000000000000000600052601160045260246000fd5b7f4e487b7100000000000000000000000000000000000000000000000000000000600052602260045260246000fd5b613b4580620006026000396000f3fe608060405234801561001057600080fd5b50600436106101da5760003560e01c80638456cb5911610104578063a9059cbb116100a2578063dd62ed3e11610071578063dd62ed3e1461050d578063e2f72f031461053d578063e583983614610559578063e7ba101214610589576101da565b8063a9059cbb14610473578063b5ed298a146104a3578063b921e163146104bf578063d153b60c146104ef576101da565b80638da5cb5b116100de5780638da5cb5b146103d757806395d89b41146103f557806398e52f9a14610413578063a457c2d714610443576101da565b80638456cb59146103955780638ceed9cb1461039f5780638d1fdf2f146103bb576101da565b8063313ce5671161017c5780634e71e0c81161014b5780634e71e0c81461032157806352875bc31461032b5780635c975abb1461034757806370a0823114610365576101da565b8063313ce567146102ad57806339509351146102cb5780633f4ba83a146102fb57806345c8b1a614610305576101da565b8063095ea7b3116101b8578063095ea7b3146102115780630a91b6011461024157806318160ddd1461025f57806323b872dd1461027d576101da565b806303acb448146101df57806306fdde03146101e957806308abdeba14610207575b600080fd5b6101e76105a7565b005b6101f16107d0565b6040516101fe919061353a565b60405180910390f35b61020f610862565b005b61022b60048036038101906102269190612b3c565b61092f565b604051610238919061351f565b60405180910390f35b610249610996565b6040516102569190613504565b60405180910390f35b6102676109bc565b60405161027491906138dc565b60405180910390f35b61029760048036038101906102929190612aed565b6109c6565b6040516102a4919061351f565b60405180910390f35b6102b5610a2f565b6040516102c291906138f7565b60405180910390f35b6102e560048036038101906102e09190612b3c565b610a38565b6040516102f2919061351f565b60405180910390f35b610303610a9f565b005b61031f600480360381019061031a9190612a88565b610bc7565b005b610329610d81565b005b61034560048036038101906103409190612a88565b610f5c565b005b61034f611174565b60405161035c919061351f565b60405180910390f35b61037f600480360381019061037a9190612a88565b611187565b60405161038c91906138dc565b60405180910390f35b61039d6111cf565b005b6103b960048036038101906103b49190612a88565b6112f8565b005b6103d560048036038101906103d09190612a88565b6114a0565b005b6103df61165b565b6040516103ec9190613504565b60405180910390f35b6103fd611681565b60405161040a919061353a565b60405180910390f35b61042d60048036038101906104289190612b78565b611713565b60405161043a919061351f565b60405180910390f35b61045d60048036038101906104589190612b3c565b6118b7565b60405161046a919061351f565b60405180910390f35b61048d60048036038101906104889190612b3c565b61191e565b60405161049a919061351f565b60405180910390f35b6104bd60048036038101906104b89190612a88565b611985565b005b6104d960048036038101906104d49190612b78565b611bd6565b6040516104e6919061351f565b60405180910390f35b6104f7611d0d565b6040516105049190613504565b60405180910390f35b61052760048036038101906105229190612ab1565b611d33565b60405161053491906138dc565b60405180910390f35b61055760048036038101906105529190612a88565b611dba565b005b610573600480360381019061056e9190612a88565b611f82565b604051610580919061351f565b60405180910390f35b610591611fd8565b60405161059e9190613504565b60405180910390f35b600660009054906101000a900473ffffffffffffffffffffffffffffffffffffffff1673ffffffffffffffffffffffffffffffffffffffff163373ffffffffffffffffffffffffffffffffffffffff1614806106505750600560009054906101000a900473ffffffffffffffffffffffffffffffffffffffff1673ffffffffffffffffffffffffffffffffffffffff163373ffffffffffffffffffffffffffffffffffffffff16145b61068f576040517f08c379a00000000000000000000000000000000000000000000000000000000081526004016106869061355c565b60405180910390fd5b600073ffffffffffffffffffffffffffffffffffffffff16600660009054906101000a900473ffffffffffffffffffffffffffffffffffffffff1673ffffffffffffffffffffffffffffffffffffffff161415610721576040517f08c379a00000000000000000000000000000000000000000000000000000000081526004016107189061385c565b60405180910390fd5b6000600660009054906101000a900473ffffffffffffffffffffffffffffffffffffffff1690506000600660006101000a81548173ffffffffffffffffffffffffffffffffffffffff021916908373ffffffffffffffffffffffffffffffffffffffff1602179055508073ffffffffffffffffffffffffffffffffffffffff167f24f4590b0077912a4db89e7430de7986175c27bede1b47ee039e3b421c2e798e60405160405180910390a250565b6060600380546107df90613a40565b80601f016020809104026020016040519081016040528092919081815260200182805461080b90613a40565b80156108585780601f1061082d57610100808354040283529160200191610858565b820191906000526020600020905b81548152906001019060200180831161083b57829003601f168201915b5050505050905090565b600560009054906101000a900473ffffffffffffffffffffffffffffffffffffffff1673ffffffffffffffffffffffffffffffffffffffff163373ffffffffffffffffffffffffffffffffffffffff16146108f2576040517f08c379a00000000000000000000000000000000000000000000000000000000081526004016108e99061383c565b60405180910390fd5b60006108fd30611187565b905061092c30600560009054906101000a900473ffffffffffffffffffffffffffffffffffffffff1683611ffe565b50565b6000600660149054906101000a900460ff1615610981576040517f08c379a00000000000000000000000000000000000000000000000000000000081526004016109789061389c565b60405180910390fd5b61098b838361227f565b506001905092915050565b600760009054906101000a900473ffffffffffffffffffffffffffffffffffffffff1681565b6000600254905090565b6000600660149054906101000a900460ff1615610a18576040517f08c379a0000000000000000000000000000000000000000000000000000000008152600401610a0f9061389c565b60405180910390fd5b610a2384848461229d565b50600190509392505050565b60006012905090565b6000600660149054906101000a900460ff1615610a8a576040517f08c379a0000000000000000000000000000000000000000000000000000000008152600401610a819061389c565b60405180910390fd5b610a948383612395565b506001905092915050565b600560009054906101000a900473ffffffffffffffffffffffffffffffffffffffff1673ffffffffffffffffffffffffffffffffffffffff163373ffffffffffffffffffffffffffffffffffffffff1614610b2f576040517f08c379a0000000000000000000000000000000000000000000000000000000008152600401610b269061383c565b60405180910390fd5b600660149054906101000a900460ff16610b7e576040517f08c379a0000000000000000000000000000000000000000000000000000000008152600401610b75906136bc565b60405180910390fd5b6000600660146101000a81548160ff0219169083151502179055507f7805862f689e2f13df9f062ff482ad3ad112aca9e0847911ed832e158c525b3360405160405180910390a1565b600760009054906101000a900473ffffffffffffffffffffffffffffffffffffffff1673ffffffffffffffffffffffffffffffffffffffff163373ffffffffffffffffffffffffffffffffffffffff1614610c57576040517f08c379a0000000000000000000000000000000000000000000000000000000008152600401610c4e9061375c565b60405180910390fd5b600860008273ffffffffffffffffffffffffffffffffffffffff1673ffffffffffffffffffffffffffffffffffffffff16815260200190815260200160002060009054906101000a900460ff16610ce3576040517f08c379a0000000000000000000000000000000000000000000000000000000008152600401610cda906136dc565b60405180910390fd5b6000600860008373ffffffffffffffffffffffffffffffffffffffff1673ffffffffffffffffffffffffffffffffffffffff16815260200190815260200160002060006101000a81548160ff0219169083151502179055508073ffffffffffffffffffffffffffffffffffffffff167fc3776b472ebf54114339eec9e4dc924e7ce307a97f5c1ee72b6d474e6e5e8b7c60405160405180910390a250565b600660009054906101000a900473ffffffffffffffffffffffffffffffffffffffff1673ffffffffffffffffffffffffffffffffffffffff163373ffffffffffffffffffffffffffffffffffffffff1614610e11576040517f08c379a0000000000000000000000000000000000000000000000000000000008152600401610e08906137fc565b60405180910390fd5b6000600560009054906101000a900473ffffffffffffffffffffffffffffffffffffffff169050600660009054906101000a900473ffffffffffffffffffffffffffffffffffffffff16600560006101000a81548173ffffffffffffffffffffffffffffffffffffffff021916908373ffffffffffffffffffffffffffffffffffffffff1602179055506000600660006101000a81548173ffffffffffffffffffffffffffffffffffffffff021916908373ffffffffffffffffffffffffffffffffffffffff160217905550600560009054906101000a900473ffffffffffffffffffffffffffffffffffffffff1673ffffffffffffffffffffffffffffffffffffffff168173ffffffffffffffffffffffffffffffffffffffff167f8be0079c531659141344cd1fd0a4f28419497f9722a3daafe3b4186f6b6457e060405160405180910390a350565b600960009054906101000a900473ffffffffffffffffffffffffffffffffffffffff1673ffffffffffffffffffffffffffffffffffffffff163373ffffffffffffffffffffffffffffffffffffffff1614806110055750600560009054906101000a900473ffffffffffffffffffffffffffffffffffffffff1673ffffffffffffffffffffffffffffffffffffffff163373ffffffffffffffffffffffffffffffffffffffff16145b611044576040517f08c379a000000000000000000000000000000000000000000000000000000000815260040161103b9061363c565b60405180910390fd5b600073ffffffffffffffffffffffffffffffffffffffff168173ffffffffffffffffffffffffffffffffffffffff1614156110b4576040517f08c379a00000000000000000000000000000000000000000000000000000000081526004016110ab9061365c565b60405180910390fd5b8073ffffffffffffffffffffffffffffffffffffffff16600960009054906101000a900473ffffffffffffffffffffffffffffffffffffffff1673ffffffffffffffffffffffffffffffffffffffff167f40d53b0b666e4424f29d55244e7e171a1dc332acc11d04ed4abd884629d8cc9760405160405180910390a380600960006101000a81548173ffffffffffffffffffffffffffffffffffffffff021916908373ffffffffffffffffffffffffffffffffffffffff16021790555050565b600660149054906101000a900460ff1681565b60008060008373ffffffffffffffffffffffffffffffffffffffff1673ffffffffffffffffffffffffffffffffffffffff168152602001908152602001600020549050919050565b600560009054906101000a900473ffffffffffffffffffffffffffffffffffffffff1673ffffffffffffffffffffffffffffffffffffffff163373ffffffffffffffffffffffffffffffffffffffff161461125f576040517f08c379a00000000000000000000000000000000000000000000000000000000081526004016112569061383c565b60405180910390fd5b600660149054906101000a900460ff16156112af576040517f08c379a00000000000000000000000000000000000000000000000000000000081526004016112a69061381c565b60405180910390fd5b6001600660146101000a81548160ff0219169083151502179055507f6985a02210a168e66602d3235cb6db0e70f92b3ba4d376a33c0f3d9434bff62560405160405180910390a1565b600760009054906101000a900473ffffffffffffffffffffffffffffffffffffffff1673ffffffffffffffffffffffffffffffffffffffff163373ffffffffffffffffffffffffffffffffffffffff1614806113a15750600560009054906101000a900473ffffffffffffffffffffffffffffffffffffffff1673ffffffffffffffffffffffffffffffffffffffff163373ffffffffffffffffffffffffffffffffffffffff16145b6113e0576040517f08c379a00000000000000000000000000000000000000000000000000000000081526004016113d79061371c565b60405180910390fd5b8073ffffffffffffffffffffffffffffffffffffffff16600760009054906101000a900473ffffffffffffffffffffffffffffffffffffffff1673ffffffffffffffffffffffffffffffffffffffff167fd0c36a0ac0fe0d375386bd568fa2947a2dae7523a0a0cfdab20b7532a105bd1b60405160405180910390a380600760006101000a81548173ffffffffffffffffffffffffffffffffffffffff021916908373ffffffffffffffffffffffffffffffffffffffff16021790555050565b600760009054906101000a900473ffffffffffffffffffffffffffffffffffffffff1673ffffffffffffffffffffffffffffffffffffffff163373ffffffffffffffffffffffffffffffffffffffff1614611530576040517f08c379a00000000000000000000000000000000000000000000000000000000081526004016115279061375c565b60405180910390fd5b600860008273ffffffffffffffffffffffffffffffffffffffff1673ffffffffffffffffffffffffffffffffffffffff16815260200190815260200160002060009054906101000a900460ff16156115bd576040517f08c379a00000000000000000000000000000000000000000000000000000000081526004016115b49061373c565b60405180910390fd5b6001600860008373ffffffffffffffffffffffffffffffffffffffff1673ffffffffffffffffffffffffffffffffffffffff16815260200190815260200160002060006101000a81548160ff0219169083151502179055508073ffffffffffffffffffffffffffffffffffffffff167f90811a8edd3b3c17eeaefffc17f639cc69145d41a359c9843994dc253820369060405160405180910390a250565b600560009054906101000a900473ffffffffffffffffffffffffffffffffffffffff1681565b60606004805461169090613a40565b80601f01602080910402602001604051908101604052809291908181526020018280546116bc90613a40565b80156117095780601f106116de57610100808354040283529160200191611709565b820191906000526020600020905b8154815290600101906020018083116116ec57829003601f168201915b5050505050905090565b6000600960009054906101000a900473ffffffffffffffffffffffffffffffffffffffff1673ffffffffffffffffffffffffffffffffffffffff163373ffffffffffffffffffffffffffffffffffffffff16146117a5576040517f08c379a000000000000000000000000000000000000000000000000000000000815260040161179c9061369c565b60405180910390fd5b6117d0600960009054906101000a900473ffffffffffffffffffffffffffffffffffffffff16611187565b821115611812576040517f08c379a0000000000000000000000000000000000000000000000000000000008152600401611809906137bc565b60405180910390fd5b61183e600960009054906101000a900473ffffffffffffffffffffffffffffffffffffffff1683612441565b600960009054906101000a900473ffffffffffffffffffffffffffffffffffffffff1673ffffffffffffffffffffffffffffffffffffffff167f1b7e18241beced0d7f41fbab1ea8ed468732edbcb74ec4420151654ca71c8a63836040516118a691906138dc565b60405180910390a260019050919050565b6000600660149054906101000a900460ff1615611909576040517f08c379a00000000000000000000000000000000000000000000000000000000081526004016119009061389c565b60405180910390fd5b6119138383612618565b506001905092915050565b6000600660149054906101000a900460ff1615611970576040517f08c379a00000000000000000000000000000000000000000000000000000000081526004016119679061389c565b60405180910390fd5b61197a8383612703565b506001905092915050565b600560009054906101000a900473ffffffffffffffffffffffffffffffffffffffff1673ffffffffffffffffffffffffffffffffffffffff163373ffffffffffffffffffffffffffffffffffffffff1614611a15576040517f08c379a0000000000000000000000000000000000000000000000000000000008152600401611a0c9061383c565b60405180910390fd5b600073ffffffffffffffffffffffffffffffffffffffff168173ffffffffffffffffffffffffffffffffffffffff161415611a85576040517f08c379a0000000000000000000000000000000000000000000000000000000008152600401611a7c906135bc565b60405180910390fd5b8073ffffffffffffffffffffffffffffffffffffffff163373ffffffffffffffffffffffffffffffffffffffff161415611af4576040517f08c379a0000000000000000000000000000000000000000000000000000000008152600401611aeb9061361c565b60405180910390fd5b80600660006101000a81548173ffffffffffffffffffffffffffffffffffffffff021916908373ffffffffffffffffffffffffffffffffffffffff160217905550600660009054906101000a900473ffffffffffffffffffffffffffffffffffffffff1673ffffffffffffffffffffffffffffffffffffffff16600560009054906101000a900473ffffffffffffffffffffffffffffffffffffffff1673ffffffffffffffffffffffffffffffffffffffff167ff4e75b79500ab730f8a026ed3cba6d55331bcb64c9e9f60c548e371356e5e3c060405160405180910390a350565b6000600960009054906101000a900473ffffffffffffffffffffffffffffffffffffffff1673ffffffffffffffffffffffffffffffffffffffff163373ffffffffffffffffffffffffffffffffffffffff1614611c68576040517f08c379a0000000000000000000000000000000000000000000000000000000008152600401611c5f9061369c565b60405180910390fd5b611c94600960009054906101000a900473ffffffffffffffffffffffffffffffffffffffff1683612721565b600960009054906101000a900473ffffffffffffffffffffffffffffffffffffffff1673ffffffffffffffffffffffffffffffffffffffff167ff5c174d57843e57fea3c649fdde37f015ef08750759cbee88060390566a9879783604051611cfc91906138dc565b60405180910390a260019050919050565b600660009054906101000a900473ffffffffffffffffffffffffffffffffffffffff1681565b6000600160008473ffffffffffffffffffffffffffffffffffffffff1673ffffffffffffffffffffffffffffffffffffffff16815260200190815260200160002060008373ffffffffffffffffffffffffffffffffffffffff1673ffffffffffffffffffffffffffffffffffffffff16815260200190815260200160002054905092915050565b600760009054906101000a900473ffffffffffffffffffffffffffffffffffffffff1673ffffffffffffffffffffffffffffffffffffffff163373ffffffffffffffffffffffffffffffffffffffff1614611e4a576040517f08c379a0000000000000000000000000000000000000000000000000000000008152600401611e419061375c565b60405180910390fd5b600860008273ffffffffffffffffffffffffffffffffffffffff1673ffffffffffffffffffffffffffffffffffffffff16815260200190815260200160002060009054906101000a900460ff16611ed6576040517f08c379a0000000000000000000000000000000000000000000000000000000008152600401611ecd906135dc565b60405180910390fd5b6000611ee182611187565b9050611eed8282612441565b8173ffffffffffffffffffffffffffffffffffffffff167ffc5960f1c5a5d2b60f031bf534af053b1bf7d9881989afaeb8b1d164db23aede60405160405180910390a28173ffffffffffffffffffffffffffffffffffffffff167f1b7e18241beced0d7f41fbab1ea8ed468732edbcb74ec4420151654ca71c8a6382604051611f7691906138dc565b60405180910390a25050565b6000600860008373ffffffffffffffffffffffffffffffffffffffff1673ffffffffffffffffffffffffffffffffffffffff16815260200190815260200160002060009054906101000a900460ff169050919050565b600960009054906101000a900473ffffffffffffffffffffffffffffffffffffffff1681565b600073ffffffffffffffffffffffffffffffffffffffff168373ffffffffffffffffffffffffffffffffffffffff16141561206e576040517f08c379a00000000000000000000000000000000000000000000000000000000081526004016120659061379c565b60405180910390fd5b600073ffffffffffffffffffffffffffffffffffffffff168273ffffffffffffffffffffffffffffffffffffffff1614156120de576040517f08c379a00000000000000000000000000000000000000000000000000000000081526004016120d59061357c565b60405180910390fd5b6120e9838383612881565b60008060008573ffffffffffffffffffffffffffffffffffffffff1673ffffffffffffffffffffffffffffffffffffffff1681526020019081526020016000205490508181101561216f576040517f08c379a00000000000000000000000000000000000000000000000000000000081526004016121669061367c565b60405180910390fd5b8181036000808673ffffffffffffffffffffffffffffffffffffffff1673ffffffffffffffffffffffffffffffffffffffff16815260200190815260200160002081905550816000808573ffffffffffffffffffffffffffffffffffffffff1673ffffffffffffffffffffffffffffffffffffffff1681526020019081526020016000206000828254612202919061392e565b925050819055508273ffffffffffffffffffffffffffffffffffffffff168473ffffffffffffffffffffffffffffffffffffffff167fddf252ad1be2c89b69c2b068fc378daa952ba7f163c4a11628f55a4df523b3ef8460405161226691906138dc565b60405180910390a3612279848484612886565b50505050565b600061229361228c61288b565b8484612893565b6001905092915050565b60006122aa848484611ffe565b6000600160008673ffffffffffffffffffffffffffffffffffffffff1673ffffffffffffffffffffffffffffffffffffffff16815260200190815260200160002060006122f561288b565b73ffffffffffffffffffffffffffffffffffffffff1673ffffffffffffffffffffffffffffffffffffffff16815260200190815260200160002054905082811015612375576040517f08c379a000000000000000000000000000000000000000000000000000000000815260040161236c906136fc565b60405180910390fd5b6123898561238161288b565b858403612893565b60019150509392505050565b60006124376123a261288b565b8484600160006123b061288b565b73ffffffffffffffffffffffffffffffffffffffff1673ffffffffffffffffffffffffffffffffffffffff16815260200190815260200160002060008873ffffffffffffffffffffffffffffffffffffffff1673ffffffffffffffffffffffffffffffffffffffff16815260200190815260200160002054612432919061392e565b612893565b6001905092915050565b600073ffffffffffffffffffffffffffffffffffffffff168273ffffffffffffffffffffffffffffffffffffffff1614156124b1576040517f08c379a00000000000000000000000000000000000000000000000000000000081526004016124a89061377c565b60405180910390fd5b6124bd82600083612881565b60008060008473ffffffffffffffffffffffffffffffffffffffff1673ffffffffffffffffffffffffffffffffffffffff16815260200190815260200160002054905081811015612543576040517f08c379a000000000000000000000000000000000000000000000000000000000815260040161253a9061359c565b60405180910390fd5b8181036000808573ffffffffffffffffffffffffffffffffffffffff1673ffffffffffffffffffffffffffffffffffffffff16815260200190815260200160002081905550816002600082825461259a9190613984565b92505081905550600073ffffffffffffffffffffffffffffffffffffffff168373ffffffffffffffffffffffffffffffffffffffff167fddf252ad1be2c89b69c2b068fc378daa952ba7f163c4a11628f55a4df523b3ef846040516125ff91906138dc565b60405180910390a361261383600084612886565b505050565b6000806001600061262761288b565b73ffffffffffffffffffffffffffffffffffffffff1673ffffffffffffffffffffffffffffffffffffffff16815260200190815260200160002060008573ffffffffffffffffffffffffffffffffffffffff1673ffffffffffffffffffffffffffffffffffffffff168152602001908152602001600020549050828110156126e4576040517f08c379a00000000000000000000000000000000000000000000000000000000081526004016126db9061387c565b60405180910390fd5b6126f86126ef61288b565b85858403612893565b600191505092915050565b600061271761271061288b565b8484611ffe565b6001905092915050565b600073ffffffffffffffffffffffffffffffffffffffff168273ffffffffffffffffffffffffffffffffffffffff161415612791576040517f08c379a0000000000000000000000000000000000000000000000000000000008152600401612788906138bc565b60405180910390fd5b61279d60008383612881565b80600260008282546127af919061392e565b92505081905550806000808473ffffffffffffffffffffffffffffffffffffffff1673ffffffffffffffffffffffffffffffffffffffff1681526020019081526020016000206000828254612804919061392e565b925050819055508173ffffffffffffffffffffffffffffffffffffffff16600073ffffffffffffffffffffffffffffffffffffffff167fddf252ad1be2c89b69c2b068fc378daa952ba7f163c4a11628f55a4df523b3ef8360405161286991906138dc565b60405180910390a361287d60008383612886565b5050565b505050565b505050565b600033905090565b600073ffffffffffffffffffffffffffffffffffffffff168373ffffffffffffffffffffffffffffffffffffffff161415612903576040517f08c379a00000000000000000000000000000000000000000000000000000000081526004016128fa906137dc565b60405180910390fd5b600073ffffffffffffffffffffffffffffffffffffffff168273ffffffffffffffffffffffffffffffffffffffff161415612973576040517f08c379a000000000000000000000000000000000000000000000000000000000815260040161296a906135fc565b60405180910390fd5b80600160008573ffffffffffffffffffffffffffffffffffffffff1673ffffffffffffffffffffffffffffffffffffffff16815260200190815260200160002060008473ffffffffffffffffffffffffffffffffffffffff1673ffffffffffffffffffffffffffffffffffffffff168152602001908152602001600020819055508173ffffffffffffffffffffffffffffffffffffffff168373ffffffffffffffffffffffffffffffffffffffff167f8c5be1e5ebec7d5bd14f71427d1e84f3dd0314c0f7b2291e5b200ac8c7c3b92583604051612a5191906138dc565b60405180910390a3505050565b600081359050612a6d81613ae1565b92915050565b600081359050612a8281613af8565b92915050565b600060208284031215612a9a57600080fd5b6000612aa884828501612a5e565b91505092915050565b60008060408385031215612ac457600080fd5b6000612ad285828601612a5e565b9250506020612ae385828601612a5e565b9150509250929050565b600080600060608486031215612b0257600080fd5b6000612b1086828701612a5e565b9350506020612b2186828701612a5e565b9250506040612b3286828701612a73565b9150509250925092565b60008060408385031215612b4f57600080fd5b6000612b5d85828601612a5e565b9250506020612b6e85828601612a73565b9150509250929050565b600060208284031215612b8a57600080fd5b6000612b9884828501612a73565b91505092915050565b612baa816139b8565b82525050565b612bb9816139ca565b82525050565b6000612bca82613912565b612bd4818561391d565b9350612be4818560208601613a0d565b612bed81613ad0565b840191505092915050565b6000612c05601b8361391d565b91507f6f6e6c792070726f706f7365644f776e6572206f72206f776e657200000000006000830152602082019050919050565b6000612c4560238361391d565b91507f45524332303a207472616e7366657220746f20746865207a65726f206164647260008301527f65737300000000000000000000000000000000000000000000000000000000006020830152604082019050919050565b6000612cab60228361391d565b91507f45524332303a206275726e20616d6f756e7420657863656564732062616c616e60008301527f63650000000000000000000000000000000000000000000000000000000000006020830152604082019050919050565b6000612d1160298361391d565b91507f63616e6e6f74207472616e73666572206f776e65727368697020746f2061646460008301527f72657373207a65726f00000000000000000000000000000000000000000000006020830152604082019050919050565b6000612d7760158361391d565b91507f61646472657373206973206e6f742066726f7a656e00000000000000000000006000830152602082019050919050565b6000612db760228361391d565b91507f45524332303a20617070726f766520746f20746865207a65726f20616464726560008301527f73730000000000000000000000000000000000000000000000000000000000006020830152604082019050919050565b6000612e1d60178361391d565b91507f63616c6c657220616c7265616479206973206f776e65720000000000000000006000830152602082019050919050565b6000612e5d601e8361391d565b91507f6f6e6c7920537570706c79436f6e74726f6c6c6572206f72204f776e657200006000830152602082019050919050565b6000612e9d602c8361391d565b91507f63616e6e6f742073657420737570706c7920636f6e74726f6c6c657220746f2060008301527f61646472657373207a65726f00000000000000000000000000000000000000006020830152604082019050919050565b6000612f0360268361391d565b91507f45524332303a207472616e7366657220616d6f756e742065786365656473206260008301527f616c616e636500000000000000000000000000000000000000000000000000006020830152604082019050919050565b6000612f6960148361391d565b91507f6f6e6c79537570706c79436f6e74726f6c6c65720000000000000000000000006000830152602082019050919050565b6000612fa960108361391d565b91507f616c726561647920756e706175736564000000000000000000000000000000006000830152602082019050919050565b6000612fe960188361391d565b91507f6164647265737320616c726561647920756e66726f7a656e00000000000000006000830152602082019050919050565b600061302960288361391d565b91507f45524332303a207472616e7366657220616d6f756e742065786365656473206160008301527f6c6c6f77616e63650000000000000000000000000000000000000000000000006020830152604082019050919050565b600061308f60218361391d565b91507f6f6e6c7920617373657450726f74656374696f6e526f6c65206f72204f776e6560008301527f72000000000000000000000000000000000000000000000000000000000000006020830152604082019050919050565b60006130f560168361391d565b91507f6164647265737320616c72656164792066726f7a656e000000000000000000006000830152602082019050919050565b600061313560178361391d565b91507f6f6e6c79417373657450726f74656374696f6e526f6c650000000000000000006000830152602082019050919050565b600061317560218361391d565b91507f45524332303a206275726e2066726f6d20746865207a65726f2061646472657360008301527f73000000000000000000000000000000000000000000000000000000000000006020830152604082019050919050565b60006131db60258361391d565b91507f45524332303a207472616e736665722066726f6d20746865207a65726f20616460008301527f64726573730000000000000000000000000000000000000000000000000000006020830152604082019050919050565b600061324160118361391d565b91507f6e6f7420656e6f75676820737570706c790000000000000000000000000000006000830152602082019050919050565b600061328160248361391d565b91507f45524332303a20617070726f76652066726f6d20746865207a65726f2061646460008301527f72657373000000000000000000000000000000000000000000000000000000006020830152604082019050919050565b60006132e760118361391d565b91507f6f6e6c7950726f706f7365644f776e65720000000000000000000000000000006000830152602082019050919050565b6000613327600e8361391d565b91507f616c7265616479207061757365640000000000000000000000000000000000006000830152602082019050919050565b600061336760098361391d565b91507f6f6e6c794f776e657200000000000000000000000000000000000000000000006000830152602082019050919050565b60006133a7603b8361391d565b91507f63616e206f6e6c792064697372656761726420612070726f706f736564206f7760008301527f6e65722074686174207761732070726576696f75736c792073657400000000006020830152604082019050919050565b600061340d60258361391d565b91507f45524332303a2064656372656173656420616c6c6f77616e63652062656c6f7760008301527f207a65726f0000000000000000000000000000000000000000000000000000006020830152604082019050919050565b6000613473600d8361391d565b91507f7768656e4e6f74506175736564000000000000000000000000000000000000006000830152602082019050919050565b60006134b3601f8361391d565b91507f45524332303a206d696e7420746f20746865207a65726f2061646472657373006000830152602082019050919050565b6134ef816139f6565b82525050565b6134fe81613a00565b82525050565b60006020820190506135196000830184612ba1565b92915050565b60006020820190506135346000830184612bb0565b92915050565b600060208201905081810360008301526135548184612bbf565b905092915050565b6000602082019050818103600083015261357581612bf8565b9050919050565b6000602082019050818103600083015261359581612c38565b9050919050565b600060208201905081810360008301526135b581612c9e565b9050919050565b600060208201905081810360008301526135d581612d04565b9050919050565b600060208201905081810360008301526135f581612d6a565b9050919050565b6000602082019050818103600083015261361581612daa565b9050919050565b6000602082019050818103600083015261363581612e10565b9050919050565b6000602082019050818103600083015261365581612e50565b9050919050565b6000602082019050818103600083015261367581612e90565b9050919050565b6000602082019050818103600083015261369581612ef6565b9050919050565b600060208201905081810360008301526136b581612f5c565b9050919050565b600060208201905081810360008301526136d581612f9c565b9050919050565b600060208201905081810360008301526136f581612fdc565b9050919050565b600060208201905081810360008301526137158161301c565b9050919050565b6000602082019050818103600083015261373581613082565b9050919050565b60006020820190508181036000830152613755816130e8565b9050919050565b6000602082019050818103600083015261377581613128565b9050919050565b6000602082019050818103600083015261379581613168565b9050919050565b600060208201905081810360008301526137b5816131ce565b9050919050565b600060208201905081810360008301526137d581613234565b9050919050565b600060208201905081810360008301526137f581613274565b9050919050565b60006020820190508181036000830152613815816132da565b9050919050565b600060208201905081810360008301526138358161331a565b9050919050565b600060208201905081810360008301526138558161335a565b9050919050565b600060208201905081810360008301526138758161339a565b9050919050565b6000602082019050818103600083015261389581613400565b9050919050565b600060208201905081810360008301526138b581613466565b9050919050565b600060208201905081810360008301526138d5816134a6565b9050919050565b60006020820190506138f160008301846134e6565b92915050565b600060208201905061390c60008301846134f5565b92915050565b600081519050919050565b600082825260208201905092915050565b6000613939826139f6565b9150613944836139f6565b9250827fffffffffffffffffffffffffffffffffffffffffffffffffffffffffffffffff0382111561397957613978613a72565b5b828201905092915050565b600061398f826139f6565b915061399a836139f6565b9250828210156139ad576139ac613a72565b5b828203905092915050565b60006139c3826139d6565b9050919050565b60008115159050919050565b600073ffffffffffffffffffffffffffffffffffffffff82169050919050565b6000819050919050565b600060ff82169050919050565b60005b83811015613a2b578082015181840152602081019050613a10565b83811115613a3a576000848401525b50505050565b60006002820490506001821680613a5857607f821691505b60208210811415613a6c57613a6b613aa1565b5b50919050565b7f4e487b7100000000000000000000000000000000000000000000000000000000600052601160045260246000fd5b7f4e487b7100000000000000000000000000000000000000000000000000000000600052602260045260246000fd5b6000601f19601f8301169050919050565b613aea816139b8565b8114613af557600080fd5b50565b613b01816139f6565b8114613b0c57600080fd5b5056fea26469706673582212208cffbf7757398161fe0774b1fedf97cc03bdf67bfb2f1501eabd0756b7bd5d1f64736f6c63430008000033",
  "immutableReferences": {},
  "source": "pragma solidity ^0.8.0;\r\n\r\nimport \"@openzeppelin/contracts/token/ERC20/ERC20.sol\";\r\nimport \"@openzeppelin/contracts/utils/math/SafeMath.sol\";\r\n\r\n\r\n\r\ncontract MyToken is ERC20 {\r\n\r\n  using SafeMath for uint256;\r\n\r\n  address public owner;\r\n  address public proposedOwner;\r\n\r\n  bool public paused = false;\r\n\r\n  address public assetProtectionRole;\r\n  mapping(address => bool) internal frozen;\r\n\r\n  address public supplyController;\r\n\r\n\r\n  event OwnershipTransferProposed(\r\n      address indexed currentOwner,\r\n      address indexed proposedOwner\r\n  );\r\n  event OwnershipTransferDisregarded(\r\n      address indexed oldProposedOwner\r\n  );\r\n  event OwnershipTransferred(\r\n      address indexed oldOwner,\r\n      address indexed newOwner\r\n  );\r\n\r\n\r\n  event Pause();\r\n  event Unpause();\r\n\r\n\r\n  event AddressFrozen(address indexed addr);\r\n  event AddressUnfrozen(address indexed addr);\r\n  event FrozenAddressWiped(address indexed addr);\r\n  event AssetProtectionRoleSet (\r\n      address indexed oldAssetProtectionRole,\r\n      address indexed newAssetProtectionRole\r\n  );\r\n\r\n\r\n  event SupplyIncreased(address indexed to, uint256 value);\r\n  event SupplyDecreased(address indexed from, uint256 value);\r\n  event SupplyControllerSet(\r\n      address indexed oldSupplyController,\r\n      address indexed newSupplyController\r\n  );\r\n\r\n  //Token and TKN to be changed!\r\n  constructor() ERC20(\"Token\", \"TKN\") public {\r\n    _mint(_msgSender(), 0);\r\n    owner = _msgSender();\r\n    proposedOwner = address(0);\r\n    assetProtectionRole = address(0);\r\n    supplyController = _msgSender();\r\n  }\r\n\r\n\r\n\r\n    /**\r\n     * @dev Throws if called by any account other than the owner.\r\n     */\r\n    modifier onlyOwner() {\r\n        require(msg.sender == owner, \"onlyOwner\");\r\n        _;\r\n    }\r\n\r\n    /**\r\n     * @dev Allows the current owner to begin transferring control of the contract to a proposedOwner\r\n     * @param _proposedOwner The address to transfer ownership to.\r\n     */\r\n    function proposeOwner(address _proposedOwner) public onlyOwner {\r\n        require(_proposedOwner != address(0), \"cannot transfer ownership to address zero\");\r\n        require(msg.sender != _proposedOwner, \"caller already is owner\");\r\n        proposedOwner = _proposedOwner;\r\n        emit OwnershipTransferProposed(owner, proposedOwner);\r\n    }\r\n\r\n    /**\r\n     * @dev Allows the current owner or proposed owner to cancel transferring control of the contract to a proposedOwner\r\n     */\r\n    function disregardProposeOwner() public {\r\n        require(msg.sender == proposedOwner || msg.sender == owner, \"only proposedOwner or owner\");\r\n        require(proposedOwner != address(0), \"can only disregard a proposed owner that was previously set\");\r\n        address _oldProposedOwner = proposedOwner;\r\n        proposedOwner = address(0);\r\n        emit OwnershipTransferDisregarded(_oldProposedOwner);\r\n    }\r\n\r\n    /**\r\n     * @dev Allows the proposed owner to complete transferring control of the contract to the proposedOwner.\r\n     */\r\n    function claimOwnership() public {\r\n        require(msg.sender == proposedOwner, \"onlyProposedOwner\");\r\n        address _oldOwner = owner;\r\n        owner = proposedOwner;\r\n        proposedOwner = address(0);\r\n        emit OwnershipTransferred(_oldOwner, owner);\r\n    }\r\n\r\n    /**\r\n     * @dev Reclaim all PAXG at the contract address.\r\n     * This sends the PAXG tokens that this contract add holding to the owner.\r\n     * Note: this is not affected by freeze constraints.\r\n     */\r\n    function reclaimPAXG() external onlyOwner {\r\n        uint256 _balance = balanceOf(address(this));\r\n        _transfer(address(this), owner, _balance);\r\n    }\r\n    // PAUSABILITY FUNCTIONALITY\r\n\r\n    /**\r\n     * @dev Modifier to make a function callable only when the contract is not paused.\r\n     */\r\n    modifier whenNotPaused() {\r\n        require(!paused, \"whenNotPaused\");\r\n        _;\r\n    }\r\n\r\n    /**\r\n     * @dev called by the owner to pause, triggers stopped state\r\n     */\r\n    function pause() public onlyOwner {\r\n        require(!paused, \"already paused\");\r\n        paused = true;\r\n        emit Pause();\r\n    }\r\n\r\n    /**\r\n     * @dev called by the owner to unpause, returns to normal state\r\n     */\r\n    function unpause() public onlyOwner {\r\n        require(paused, \"already unpaused\");\r\n        paused = false;\r\n        emit Unpause();\r\n    }\r\n\r\n    function transfer(\r\n        address recipient,\r\n        uint256 amount\r\n    ) public virtual override whenNotPaused returns (bool success){\r\n        super.transfer(recipient, amount);\r\n        return true;\r\n    }\r\n\r\n    function approve(\r\n        address spender,\r\n        uint256 amount\r\n    ) public virtual override whenNotPaused returns (bool success){\r\n        super.approve(spender, amount);\r\n        return true;\r\n    }\r\n\r\n    function transferFrom(\r\n        address sender,\r\n        address recipient,\r\n        uint256 amount\r\n    ) public virtual override whenNotPaused returns (bool success){\r\n        super.transferFrom(sender, recipient, amount);\r\n        return true;\r\n    }\r\n\r\n    function increaseAllowance(\r\n        address spender,\r\n        uint256 addedValue\r\n    ) public virtual override whenNotPaused returns (bool success){\r\n        super.increaseAllowance(spender, addedValue);\r\n        return true;\r\n    }\r\n\r\n    function decreaseAllowance(\r\n        address spender,\r\n        uint256 subtractedValue\r\n    ) public virtual override whenNotPaused returns (bool success){\r\n        super.decreaseAllowance(spender, subtractedValue);\r\n        return true;\r\n    }\r\n\r\n\r\n    /**\r\n     * @dev Sets a new asset protection role address.\r\n     * @param _newAssetProtectionRole The new address allowed to freeze/unfreeze addresses and seize their tokens.\r\n     */\r\n    function setAssetProtectionRole(address _newAssetProtectionRole) public {\r\n        require(msg.sender == assetProtectionRole || msg.sender == owner, \"only assetProtectionRole or Owner\");\r\n        emit AssetProtectionRoleSet(assetProtectionRole, _newAssetProtectionRole);\r\n        assetProtectionRole = _newAssetProtectionRole;\r\n    }\r\n\r\n    modifier onlyAssetProtectionRole() {\r\n        require(msg.sender == assetProtectionRole, \"onlyAssetProtectionRole\");\r\n        _;\r\n    }\r\n\r\n    /**\r\n     * @dev Freezes an address balance from being transferred.\r\n     * @param _addr The new address to freeze.\r\n     */\r\n    function freeze(address _addr) public onlyAssetProtectionRole {\r\n        require(!frozen[_addr], \"address already frozen\");\r\n        frozen[_addr] = true;\r\n        emit AddressFrozen(_addr);\r\n    }\r\n\r\n    /**\r\n     * @dev Unfreezes an address balance allowing transfer.\r\n     * @param _addr The new address to unfreeze.\r\n     */\r\n    function unfreeze(address _addr) public onlyAssetProtectionRole {\r\n        require(frozen[_addr], \"address already unfrozen\");\r\n        frozen[_addr] = false;\r\n        emit AddressUnfrozen(_addr);\r\n    }\r\n\r\n    /**\r\n     * @dev Wipes the balance of a frozen address, burning the tokens\r\n     * and setting the approval to zero.\r\n     * @param _addr The new frozen address to wipe.\r\n     */\r\n    function wipeFrozenAddress(address _addr) public onlyAssetProtectionRole {\r\n        require(frozen[_addr], \"address is not frozen\");\r\n        uint256 _balance = balanceOf(_addr);\r\n        _burn(_addr, _balance);\r\n        emit FrozenAddressWiped(_addr);\r\n        emit SupplyDecreased(_addr, _balance);\r\n    }\r\n\r\n    /**\r\n    * @dev Gets whether the address is currently frozen.\r\n    * @param _addr The address to check if frozen.\r\n    * @return A bool representing whether the given address is frozen.\r\n    */\r\n    function isFrozen(address _addr) public view returns (bool) {\r\n        return frozen[_addr];\r\n    }\r\n\r\n    // SUPPLY CONTROL FUNCTIONALITY\r\n\r\n    /**\r\n     * @dev Sets a new supply controller address.\r\n     * @param _newSupplyController The address allowed to burn/mint tokens to control supply.\r\n     */\r\n    function setSupplyController(address _newSupplyController) public {\r\n        require(msg.sender == supplyController || msg.sender == owner, \"only SupplyController or Owner\");\r\n        require(_newSupplyController != address(0), \"cannot set supply controller to address zero\");\r\n        emit SupplyControllerSet(supplyController, _newSupplyController);\r\n        supplyController = _newSupplyController;\r\n    }\r\n\r\n    modifier onlySupplyController() {\r\n        require(msg.sender == supplyController, \"onlySupplyController\");\r\n        _;\r\n    }\r\n\r\n    /**\r\n     * @dev Increases the total supply by minting the specified number of tokens to the supply controller account.\r\n     * @param _value The number of tokens to add.\r\n     * @return success A boolean that indicates if the operation was successful.\r\n     */\r\n    function increaseSupply(uint256 _value) public onlySupplyController returns (bool success) {\r\n        _mint(supplyController, _value);\r\n        emit SupplyIncreased(supplyController, _value);\r\n        return true;\r\n    }\r\n\r\n    /**\r\n     * @dev Decreases the total supply by burning the specified number of tokens from the supply controller account.\r\n     * @param _value The number of tokens to remove.\r\n     * @return success A boolean that indicates if the operation was successful.\r\n     */\r\n    function decreaseSupply(uint256 _value) public onlySupplyController returns (bool success) {\r\n        require(_value <= balanceOf(supplyController), \"not enough supply\");\r\n        _burn(supplyController, _value);\r\n        emit SupplyDecreased(supplyController, _value);\r\n        return true;\r\n    }\r\n}\r\n",
  "sourcePath": "C:\\Users\\danie\\OneDrive\\Desktop\\Contracts\\ERC20_Final\\contracts\\ERC20FInal.sol",
  "compiler": {
    "name": "solc",
    "version": "0.8.0+commit.c7dfd78e.Emscripten.clang"
  },
  "schemaVersion": "3.4.2",
  "updatedAt": "2021-08-25T16:25:36.678Z",
  "networkType": "ethereum",
  "devdoc": {
    "kind": "dev",
    "methods": {
      "allowance(address,address)": {
        "details": "See {IERC20-allowance}."
      },
      "approve(address,uint256)": {
        "details": "See {IERC20-approve}. Requirements: - `spender` cannot be the zero address."
      },
      "balanceOf(address)": {
        "details": "See {IERC20-balanceOf}."
      },
      "claimOwnership()": {
        "details": "Allows the proposed owner to complete transferring control of the contract to the proposedOwner."
      },
      "decimals()": {
        "details": "Returns the number of decimals used to get its user representation. For example, if `decimals` equals `2`, a balance of `505` tokens should be displayed to a user as `5.05` (`505 / 10 ** 2`). Tokens usually opt for a value of 18, imitating the relationship between Ether and Wei. This is the value {ERC20} uses, unless this function is overridden; NOTE: This information is only used for _display_ purposes: it in no way affects any of the arithmetic of the contract, including {IERC20-balanceOf} and {IERC20-transfer}."
      },
      "decreaseAllowance(address,uint256)": {
        "details": "Atomically decreases the allowance granted to `spender` by the caller. This is an alternative to {approve} that can be used as a mitigation for problems described in {IERC20-approve}. Emits an {Approval} event indicating the updated allowance. Requirements: - `spender` cannot be the zero address. - `spender` must have allowance for the caller of at least `subtractedValue`."
      },
      "decreaseSupply(uint256)": {
        "details": "Decreases the total supply by burning the specified number of tokens from the supply controller account.",
        "params": {
          "_value": "The number of tokens to remove."
        },
        "returns": {
          "success": "A boolean that indicates if the operation was successful."
        }
      },
      "disregardProposeOwner()": {
        "details": "Allows the current owner or proposed owner to cancel transferring control of the contract to a proposedOwner"
      },
      "freeze(address)": {
        "details": "Freezes an address balance from being transferred.",
        "params": {
          "_addr": "The new address to freeze."
        }
      },
      "increaseAllowance(address,uint256)": {
        "details": "Atomically increases the allowance granted to `spender` by the caller. This is an alternative to {approve} that can be used as a mitigation for problems described in {IERC20-approve}. Emits an {Approval} event indicating the updated allowance. Requirements: - `spender` cannot be the zero address."
      },
      "increaseSupply(uint256)": {
        "details": "Increases the total supply by minting the specified number of tokens to the supply controller account.",
        "params": {
          "_value": "The number of tokens to add."
        },
        "returns": {
          "success": "A boolean that indicates if the operation was successful."
        }
      },
      "isFrozen(address)": {
        "details": "Gets whether the address is currently frozen.",
        "params": {
          "_addr": "The address to check if frozen."
        },
        "returns": {
          "_0": "A bool representing whether the given address is frozen."
        }
      },
      "name()": {
        "details": "Returns the name of the token."
      },
      "pause()": {
        "details": "called by the owner to pause, triggers stopped state"
      },
      "proposeOwner(address)": {
        "details": "Allows the current owner to begin transferring control of the contract to a proposedOwner",
        "params": {
          "_proposedOwner": "The address to transfer ownership to."
        }
      },
      "reclaimPAXG()": {
        "details": "Reclaim all PAXG at the contract address. This sends the PAXG tokens that this contract add holding to the owner. Note: this is not affected by freeze constraints."
      },
      "setAssetProtectionRole(address)": {
        "details": "Sets a new asset protection role address.",
        "params": {
          "_newAssetProtectionRole": "The new address allowed to freeze/unfreeze addresses and seize their tokens."
        }
      },
      "setSupplyController(address)": {
        "details": "Sets a new supply controller address.",
        "params": {
          "_newSupplyController": "The address allowed to burn/mint tokens to control supply."
        }
      },
      "symbol()": {
        "details": "Returns the symbol of the token, usually a shorter version of the name."
      },
      "totalSupply()": {
        "details": "See {IERC20-totalSupply}."
      },
      "transfer(address,uint256)": {
        "details": "See {IERC20-transfer}. Requirements: - `recipient` cannot be the zero address. - the caller must have a balance of at least `amount`."
      },
      "transferFrom(address,address,uint256)": {
        "details": "See {IERC20-transferFrom}. Emits an {Approval} event indicating the updated allowance. This is not required by the EIP. See the note at the beginning of {ERC20}. Requirements: - `sender` and `recipient` cannot be the zero address. - `sender` must have a balance of at least `amount`. - the caller must have allowance for ``sender``'s tokens of at least `amount`."
      },
      "unfreeze(address)": {
        "details": "Unfreezes an address balance allowing transfer.",
        "params": {
          "_addr": "The new address to unfreeze."
        }
      },
      "unpause()": {
        "details": "called by the owner to unpause, returns to normal state"
      },
      "wipeFrozenAddress(address)": {
        "details": "Wipes the balance of a frozen address, burning the tokens and setting the approval to zero.",
        "params": {
          "_addr": "The new frozen address to wipe."
        }
      }
    },
    "version": 1
  },
  "userdoc": {
    "kind": "user",
    "methods": {},
    "version": 1
  }
}